{
  "_format": "hh-sol-artifact-1",
  "contractName": "Polymarket",
  "sourceName": "contracts/Polymarket.sol",
  "abi": [
    {
      "inputs": [
        {
          "internalType": "address",
          "name": "_polyToken",
          "type": "address"
        }
      ],
      "stateMutability": "nonpayable",
      "type": "constructor"
    },
    {
      "inputs": [
        {
          "internalType": "address",
          "name": "spender",
          "type": "address"
        },
        {
          "internalType": "uint256",
          "name": "allowance",
          "type": "uint256"
        },
        {
          "internalType": "uint256",
          "name": "needed",
          "type": "uint256"
        }
      ],
      "name": "ERC20InsufficientAllowance",
      "type": "error"
    },
    {
      "inputs": [
        {
          "internalType": "address",
          "name": "sender",
          "type": "address"
        },
        {
          "internalType": "uint256",
          "name": "balance",
          "type": "uint256"
        },
        {
          "internalType": "uint256",
          "name": "needed",
          "type": "uint256"
        }
      ],
      "name": "ERC20InsufficientBalance",
      "type": "error"
    },
    {
      "inputs": [
        {
          "internalType": "address",
          "name": "approver",
          "type": "address"
        }
      ],
      "name": "ERC20InvalidApprover",
      "type": "error"
    },
    {
      "inputs": [
        {
          "internalType": "address",
          "name": "receiver",
          "type": "address"
        }
      ],
      "name": "ERC20InvalidReceiver",
      "type": "error"
    },
    {
      "inputs": [
        {
          "internalType": "address",
          "name": "sender",
          "type": "address"
        }
      ],
      "name": "ERC20InvalidSender",
      "type": "error"
    },
    {
      "inputs": [
        {
          "internalType": "address",
          "name": "spender",
          "type": "address"
        }
      ],
      "name": "ERC20InvalidSpender",
      "type": "error"
    },
    {
      "inputs": [
        {
          "internalType": "address",
          "name": "owner",
          "type": "address"
        }
      ],
      "name": "OwnableInvalidOwner",
      "type": "error"
    },
    {
      "inputs": [
        {
          "internalType": "address",
          "name": "account",
          "type": "address"
        }
      ],
      "name": "OwnableUnauthorizedAccount",
      "type": "error"
    },
    {
      "anonymous": false,
      "inputs": [
        {
          "indexed": true,
          "internalType": "address",
          "name": "owner",
          "type": "address"
        },
        {
          "indexed": true,
          "internalType": "address",
          "name": "spender",
          "type": "address"
        },
        {
          "indexed": false,
          "internalType": "uint256",
          "name": "value",
          "type": "uint256"
        }
      ],
      "name": "Approval",
      "type": "event"
    },
    {
      "anonymous": false,
      "inputs": [
        {
          "indexed": false,
          "internalType": "uint256",
          "name": "id",
          "type": "uint256"
        },
        {
          "indexed": false,
          "internalType": "string",
          "name": "market",
          "type": "string"
        },
        {
          "indexed": false,
          "internalType": "uint256",
          "name": "timestamp",
          "type": "uint256"
        },
        {
          "indexed": false,
          "internalType": "address",
          "name": "createdBy",
          "type": "address"
        },
        {
          "indexed": false,
          "internalType": "string",
          "name": "creatorImageHash",
          "type": "string"
        },
        {
          "indexed": false,
          "internalType": "uint256",
          "name": "totalAmount",
          "type": "uint256"
        },
        {
          "indexed": false,
          "internalType": "uint256",
          "name": "totalYesAmount",
          "type": "uint256"
        },
        {
          "indexed": false,
          "internalType": "uint256",
          "name": "totalNoAmount",
          "type": "uint256"
        }
      ],
      "name": "MarketCreated",
      "type": "event"
    },
    {
      "anonymous": false,
      "inputs": [
        {
          "indexed": true,
          "internalType": "address",
          "name": "previousOwner",
          "type": "address"
        },
        {
          "indexed": true,
          "internalType": "address",
          "name": "newOwner",
          "type": "address"
        }
      ],
      "name": "OwnershipTransferred",
      "type": "event"
    },
    {
      "anonymous": false,
      "inputs": [
        {
          "indexed": true,
          "internalType": "address",
          "name": "from",
          "type": "address"
        },
        {
          "indexed": true,
          "internalType": "address",
          "name": "to",
          "type": "address"
        },
        {
          "indexed": false,
          "internalType": "uint256",
          "name": "value",
          "type": "uint256"
        }
      ],
      "name": "Transfer",
      "type": "event"
    },
    {
      "inputs": [
        {
          "internalType": "uint256",
          "name": "_marketId",
          "type": "uint256"
        },
        {
          "internalType": "uint256",
          "name": "_value",
          "type": "uint256"
        }
      ],
      "name": "addNoBet",
      "outputs": [],
      "stateMutability": "nonpayable",
      "type": "function"
    },
    {
      "inputs": [
        {
          "internalType": "uint256",
          "name": "_marketId",
          "type": "uint256"
        },
        {
          "internalType": "uint256",
          "name": "_value",
          "type": "uint256"
        }
      ],
      "name": "addYesBet",
      "outputs": [],
      "stateMutability": "nonpayable",
      "type": "function"
    },
    {
      "inputs": [
        {
          "internalType": "address",
          "name": "owner",
          "type": "address"
        },
        {
          "internalType": "address",
          "name": "spender",
          "type": "address"
        }
      ],
      "name": "allowance",
      "outputs": [
        {
          "internalType": "uint256",
          "name": "",
          "type": "uint256"
        }
      ],
      "stateMutability": "view",
      "type": "function"
    },
    {
      "inputs": [
        {
          "internalType": "address",
          "name": "spender",
          "type": "address"
        },
        {
          "internalType": "uint256",
          "name": "value",
          "type": "uint256"
        }
      ],
      "name": "approve",
      "outputs": [
        {
          "internalType": "bool",
          "name": "",
          "type": "bool"
        }
      ],
      "stateMutability": "nonpayable",
      "type": "function"
    },
    {
      "inputs": [
        {
          "internalType": "address",
          "name": "account",
          "type": "address"
        }
      ],
      "name": "balanceOf",
      "outputs": [
        {
          "internalType": "uint256",
          "name": "",
          "type": "uint256"
        }
      ],
      "stateMutability": "view",
      "type": "function"
    },
    {
      "inputs": [
        {
          "internalType": "string",
          "name": "_market",
          "type": "string"
        },
        {
          "internalType": "string",
          "name": "_creatorImageHash",
          "type": "string"
        },
        {
          "internalType": "string",
          "name": "_description",
          "type": "string"
        },
        {
          "internalType": "string",
          "name": "_resolverUrl",
          "type": "string"
        },
        {
          "internalType": "uint256",
          "name": "_endTimestamp",
          "type": "uint256"
        }
      ],
      "name": "createMarket",
      "outputs": [],
      "stateMutability": "nonpayable",
      "type": "function"
    },
    {
      "inputs": [],
      "name": "decimals",
      "outputs": [
        {
          "internalType": "uint8",
          "name": "",
          "type": "uint8"
        }
      ],
      "stateMutability": "view",
      "type": "function"
    },
    {
      "inputs": [
        {
          "internalType": "uint256",
          "name": "_marketId",
          "type": "uint256"
        },
        {
          "internalType": "bool",
          "name": "eventOutcome",
          "type": "bool"
        }
      ],
      "name": "distributeWinningAmount",
      "outputs": [],
      "stateMutability": "nonpayable",
      "type": "function"
    },
    {
      "inputs": [
        {
          "internalType": "uint256",
          "name": "_marketId",
          "type": "uint256"
        }
      ],
      "name": "getGraphData",
      "outputs": [
        {
          "components": [
            {
              "internalType": "address",
              "name": "user",
              "type": "address"
            },
            {
              "internalType": "uint256",
              "name": "amount",
              "type": "uint256"
            },
            {
              "internalType": "uint256",
              "name": "timestamp",
              "type": "uint256"
            }
          ],
          "internalType": "struct Polymarket.AmountAdded[]",
          "name": "",
          "type": "tuple[]"
        },
        {
          "components": [
            {
              "internalType": "address",
              "name": "user",
              "type": "address"
            },
            {
              "internalType": "uint256",
              "name": "amount",
              "type": "uint256"
            },
            {
              "internalType": "uint256",
              "name": "timestamp",
              "type": "uint256"
            }
          ],
          "internalType": "struct Polymarket.AmountAdded[]",
          "name": "",
          "type": "tuple[]"
        }
      ],
      "stateMutability": "view",
      "type": "function"
    },
    {
      "inputs": [
        {
          "internalType": "uint256",
          "name": "",
          "type": "uint256"
        }
      ],
      "name": "markets",
      "outputs": [
        {
          "internalType": "uint256",
          "name": "id",
          "type": "uint256"
        },
        {
          "internalType": "string",
          "name": "market",
          "type": "string"
        },
        {
          "internalType": "uint256",
          "name": "timestamp",
          "type": "uint256"
        },
        {
          "internalType": "uint256",
          "name": "endTimestamp",
          "type": "uint256"
        },
        {
          "internalType": "address",
          "name": "createdBy",
          "type": "address"
        },
        {
          "internalType": "string",
          "name": "creatorImageHash",
          "type": "string"
        },
        {
          "internalType": "uint256",
          "name": "totalAmount",
          "type": "uint256"
        },
        {
          "internalType": "uint256",
          "name": "totalYesAmount",
          "type": "uint256"
        },
        {
          "internalType": "uint256",
          "name": "totalNoAmount",
          "type": "uint256"
        },
        {
          "internalType": "bool",
          "name": "eventCompleted",
          "type": "bool"
        },
        {
          "internalType": "string",
          "name": "description",
          "type": "string"
        },
        {
          "internalType": "string",
          "name": "resolverUrl",
          "type": "string"
        }
      ],
      "stateMutability": "view",
      "type": "function"
    },
    {
      "inputs": [],
      "name": "name",
      "outputs": [
        {
          "internalType": "string",
          "name": "",
          "type": "string"
        }
      ],
      "stateMutability": "view",
      "type": "function"
    },
    {
      "inputs": [],
      "name": "owner",
      "outputs": [
        {
          "internalType": "address",
          "name": "",
          "type": "address"
        }
      ],
      "stateMutability": "view",
      "type": "function"
    },
    {
      "inputs": [],
      "name": "polyToken",
      "outputs": [
        {
          "internalType": "address",
          "name": "",
          "type": "address"
        }
      ],
      "stateMutability": "view",
      "type": "function"
    },
    {
      "inputs": [],
      "name": "renounceOwnership",
      "outputs": [],
      "stateMutability": "nonpayable",
      "type": "function"
    },
    {
      "inputs": [],
      "name": "symbol",
      "outputs": [
        {
          "internalType": "string",
          "name": "",
          "type": "string"
        }
      ],
      "stateMutability": "view",
      "type": "function"
    },
    {
      "inputs": [],
      "name": "totalMarkets",
      "outputs": [
        {
          "internalType": "uint256",
          "name": "",
          "type": "uint256"
        }
      ],
      "stateMutability": "view",
      "type": "function"
    },
    {
      "inputs": [],
      "name": "totalSupply",
      "outputs": [
        {
          "internalType": "uint256",
          "name": "",
          "type": "uint256"
        }
      ],
      "stateMutability": "view",
      "type": "function"
    },
    {
      "inputs": [
        {
          "internalType": "address",
          "name": "to",
          "type": "address"
        },
        {
          "internalType": "uint256",
          "name": "value",
          "type": "uint256"
        }
      ],
      "name": "transfer",
      "outputs": [
        {
          "internalType": "bool",
          "name": "",
          "type": "bool"
        }
      ],
      "stateMutability": "nonpayable",
      "type": "function"
    },
    {
      "inputs": [
        {
          "internalType": "address",
          "name": "from",
          "type": "address"
        },
        {
          "internalType": "address",
          "name": "to",
          "type": "address"
        },
        {
          "internalType": "uint256",
          "name": "value",
          "type": "uint256"
        }
      ],
      "name": "transferFrom",
      "outputs": [
        {
          "internalType": "bool",
          "name": "",
          "type": "bool"
        }
      ],
      "stateMutability": "nonpayable",
      "type": "function"
    },
    {
      "inputs": [
        {
          "internalType": "address",
          "name": "newOwner",
          "type": "address"
        }
      ],
      "name": "transferOwnership",
      "outputs": [],
      "stateMutability": "nonpayable",
      "type": "function"
    },
    {
      "inputs": [
        {
          "internalType": "uint256",
          "name": "",
          "type": "uint256"
        }
      ],
      "name": "winningAddresses",
      "outputs": [
        {
          "internalType": "address",
          "name": "",
          "type": "address"
        }
      ],
      "stateMutability": "view",
      "type": "function"
    },
    {
      "inputs": [
        {
          "internalType": "address",
          "name": "",
          "type": "address"
        }
      ],
      "name": "winningAmount",
      "outputs": [
        {
          "internalType": "uint256",
          "name": "",
          "type": "uint256"
        }
      ],
      "stateMutability": "view",
      "type": "function"
    }
  ],
  "bytecode": "0x6080604052600060075534801561001557600080fd5b50604051611f50380380611f5083398101604081905261003491610143565b336040518060400160405280600b81526020016a253ab634b0902a37b5b2b760a91b8152506040518060400160405280600381526020016212931560ea1b81525081600390816100849190610212565b5060046100918282610212565b5050506001600160a01b0381166100c257604051631e4fbdf760e01b81526000600482015260240160405180910390fd5b6100cb816100f1565b50600680546001600160a01b0319166001600160a01b03929092169190911790556102d0565b600580546001600160a01b038381166001600160a01b0319831681179093556040519116919082907f8be0079c531659141344cd1fd0a4f28419497f9722a3daafe3b4186f6b6457e090600090a35050565b60006020828403121561015557600080fd5b81516001600160a01b038116811461016c57600080fd5b9392505050565b634e487b7160e01b600052604160045260246000fd5b600181811c9082168061019d57607f821691505b6020821081036101bd57634e487b7160e01b600052602260045260246000fd5b50919050565b601f82111561020d57806000526020600020601f840160051c810160208510156101ea5750805b601f840160051c820191505b8181101561020a57600081556001016101f6565b50505b505050565b81516001600160401b0381111561022b5761022b610173565b61023f816102398454610189565b846101c3565b6020601f821160018114610273576000831561025b5750848201515b600019600385901b1c1916600184901b17845561020a565b600084815260208120601f198516915b828110156102a35787850151825560209485019460019092019101610283565b50848210156102c15786840151600019600387901b60f8161c191681555b50505050600190811b01905550565b611c71806102df6000396000f3fe608060405234801561001057600080fd5b50600436106101425760003560e01c80638162486b116100b8578063b78d6c1d1161007c578063b78d6c1d146102c1578063bf01fe00146102d4578063da6b4db8146102e7578063dd62ed3e14610307578063eb3f75e214610340578063f2fde38b1461035357600080fd5b80638162486b146102615780638da5cb5b1461026a57806395d89b411461027b578063a9059cbb14610283578063b1283e771461029657600080fd5b8063313ce5671161010a578063313ce567146101ce5780633f4a5d0a146101dd5780636faa22a5146101f257806370a082311461021d578063715018a614610246578063724ba40b1461024e57600080fd5b806306fdde0314610147578063095ea7b31461016557806314dd57621461018857806318160ddd146101a957806323b872dd146101bb575b600080fd5b61014f610366565b60405161015c91906115c3565b60405180910390f35b6101786101733660046115f9565b6103f8565b604051901515815260200161015c565b61019b610196366004611623565b610412565b60405161015c92919061169a565b6002545b60405190815260200161015c565b6101786101c93660046116c8565b610536565b6040516012815260200161015c565b6101f06101eb3660046117aa565b61055a565b005b600654610205906001600160a01b031681565b6040516001600160a01b03909116815260200161015c565b6101ad61022b366004611872565b6001600160a01b031660009081526020819052604090205490565b6101f061064e565b6101f061025c36600461189b565b610662565b6101ad60075481565b6005546001600160a01b0316610205565b61014f610a5f565b6101786102913660046115f9565b610a6e565b6102a96102a4366004611623565b610a7c565b60405161015c9c9b9a999897969594939291906118cb565b6102056102cf366004611623565b610d0c565b6101f06102e2366004611974565b610d36565b6101ad6102f5366004611872565b60096020526000908152604090205481565b6101ad610315366004611996565b6001600160a01b03918216600090815260016020908152604080832093909416825291909152205490565b6101f061034e366004611974565b610f3e565b6101f0610361366004611872565b611141565b606060038054610375906119c9565b80601f01602080910402602001604051908101604052809291908181526020018280546103a1906119c9565b80156103ee5780601f106103c3576101008083540402835291602001916103ee565b820191906000526020600020905b8154815290600101906020018083116103d157829003601f168201915b5050505050905090565b60003361040681858561117f565b60019150505b92915050565b6060806000600860008581526020019081526020016000209050806006018160070181805480602002602001604051908101604052809291908181526020016000905b828210156104aa576000848152602090819020604080516060810182526003860290920180546001600160a01b0316835260018082015484860152600290910154918301919091529083529092019101610455565b50505050915080805480602002602001604051908101604052809291908181526020016000905b82821015610526576000848152602090819020604080516060810182526003860290920180546001600160a01b03168352600180820154848601526002909101549183019190915290835290920191016104d1565b5050505090509250925050915091565b600033610544858285611191565b61054f85858561120f565b506001949350505050565b61056261126e565b600780546000818152600860205260408120828155429390929161058583611a19565b9091555050600181016105988882611a80565b50600281018290556004810180546001600160a01b03191633179055600581016105c28782611a80565b5060006008820181905560098201819055600a820155600c81016105e68682611a80565b50600d81016105f58582611a80565b50600381018390556007546040517fe51b4ce9e60c0c010fcdef22c23537f954e056004aed674362555a9d11d037389161063d918a90869033908c9060009081908190611b3f565b60405180910390a150505050505050565b61065661126e565b610660600061129b565b565b61066a61126e565b600082815260086020526040902081156108035760005b60068201548110156107fd57600082600901548360060183815481106106a9576106a9611ba3565b90600052602060002090600302016001015484600a01546106ca9190611bb9565b6106d49190611bd0565b90508260060182815481106106eb576106eb611ba3565b906000526020600020906003020160010154816107089190611bf2565b6009600085600601858154811061072157610721611ba3565b600091825260208083206003909202909101546001600160a01b031683528201929092526040018120805490919061075a908490611bf2565b9250508190555061079883600601838154811061077957610779611ba3565b60009182526020909120600390910201546001600160a01b03166112ed565b6107f457600a8360060183815481106107b3576107b3611ba3565b600091825260208083206003909202909101548354600181018555938352912090910180546001600160a01b0319166001600160a01b039092169190911790555b50600101610681565b50610965565b60005b600782015481101561096357600082600a015483600701838154811061082e5761082e611ba3565b906000526020600020906003020160010154846009015461084f9190611bb9565b6108599190611bd0565b905082600701828154811061087057610870611ba3565b9060005260206000209060030201600101548161088d9190611bf2565b600960008560070185815481106108a6576108a6611ba3565b600091825260208083206003909202909101546001600160a01b03168352820192909252604001812080549091906108df908490611bf2565b925050819055506108fe83600701838154811061077957610779611ba3565b61095a57600a83600701838154811061091957610919611ba3565b600091825260208083206003909202909101548354600181018555938352912090910180546001600160a01b0319166001600160a01b039092169190911790555b50600101610806565b505b60005b600a54811015610a40576000600a828154811061098757610987611ba3565b6000918252602080832091909101546006546001600160a01b03918216808552600990935260409384902054935163a9059cbb60e01b8152600481018490526024810194909452919350169063a9059cbb906044016020604051808303816000875af11580156109fb573d6000803e3d6000fd5b505050506040513d601f19601f82011682018060405250810190610a1f9190611c05565b506001600160a01b0316600090815260096020526040812055600101610968565b50610a4d600a600061154b565b600b01805460ff191660011790555050565b606060048054610375906119c9565b60003361040681858561120f565b60086020526000908152604090208054600182018054919291610a9e906119c9565b80601f0160208091040260200160405190810160405280929190818152602001828054610aca906119c9565b8015610b175780601f10610aec57610100808354040283529160200191610b17565b820191906000526020600020905b815481529060010190602001808311610afa57829003601f168201915b505050600284015460038501546004860154600587018054969793969295506001600160a01b03909116935090610b4d906119c9565b80601f0160208091040260200160405190810160405280929190818152602001828054610b79906119c9565b8015610bc65780601f10610b9b57610100808354040283529160200191610bc6565b820191906000526020600020905b815481529060010190602001808311610ba957829003601f168201915b50505060088401546009850154600a860154600b870154600c880180549798949793965091945060ff169291610bfb906119c9565b80601f0160208091040260200160405190810160405280929190818152602001828054610c27906119c9565b8015610c745780601f10610c4957610100808354040283529160200191610c74565b820191906000526020600020905b815481529060010190602001808311610c5757829003601f168201915b50505050509080600d018054610c89906119c9565b80601f0160208091040260200160405190810160405280929190818152602001828054610cb5906119c9565b8015610d025780601f10610cd757610100808354040283529160200191610d02565b820191906000526020600020905b815481529060010190602001808311610ce557829003601f168201915b505050505090508c565b600a8181548110610d1c57600080fd5b6000918252602090912001546001600160a01b0316905081565b600654604051636eb1769f60e11b815233600482015230602482015282916001600160a01b03169063dd62ed3e90604401602060405180830381865afa158015610d84573d6000803e3d6000fd5b505050506040513d601f19601f82011682018060405250810190610da89190611c22565b811115610dfc5760405162461bcd60e51b815260206004820152601e60248201527f4e6f7420616c6c6f77656420746f207370656e642074686973206d756368000060448201526064015b60405180910390fd5b6000838152600860205260409081902060065491516323b872dd60e01b81523360048201523060248201526044810185905290916001600160a01b0316906323b872dd906064016020604051808303816000875af1158015610e62573d6000803e3d6000fd5b505050506040513d601f19601f82011682018060405250810190610e869190611c05565b5060006040518060600160405280336001600160a01b031681526020018581526020014281525090508382600a016000828254610ec39190611bf2565b9250508190555083826008016000828254610ede9190611bf2565b90915550506007919091018054600180820183556000928352602092839020845160039093020180546001600160a01b0319166001600160a01b039093169290921782559183015191810191909155604090910151600290910155505050565b600654604051636eb1769f60e11b815233600482015230602482015282916001600160a01b03169063dd62ed3e90604401602060405180830381865afa158015610f8c573d6000803e3d6000fd5b505050506040513d601f19601f82011682018060405250810190610fb09190611c22565b811115610fff5760405162461bcd60e51b815260206004820152601e60248201527f4e6f7420616c6c6f77656420746f207370656e642074686973206d75636800006044820152606401610df3565b6000838152600860205260409081902060065491516323b872dd60e01b81523360048201523060248201526044810185905290916001600160a01b0316906323b872dd906064016020604051808303816000875af1158015611065573d6000803e3d6000fd5b505050506040513d601f19601f820116820180604052508101906110899190611c05565b5060006040518060600160405280336001600160a01b03168152602001858152602001428152509050838260090160008282546110c69190611bf2565b92505081905550838260080160008282546110e19190611bf2565b90915550506006919091018054600180820183556000928352602092839020845160039093020180546001600160a01b0319166001600160a01b039093169290921782559183015191810191909155604090910151600290910155505050565b61114961126e565b6001600160a01b03811661117357604051631e4fbdf760e01b815260006004820152602401610df3565b61117c8161129b565b50565b61118c838383600161134c565b505050565b6001600160a01b03838116600090815260016020908152604080832093861683529290522054600019811461120957818110156111fa57604051637dc7a0d960e11b81526001600160a01b03841660048201526024810182905260448101839052606401610df3565b6112098484848403600061134c565b50505050565b6001600160a01b03831661123957604051634b637e8f60e11b815260006004820152602401610df3565b6001600160a01b0382166112635760405163ec442f0560e01b815260006004820152602401610df3565b61118c838383611421565b6005546001600160a01b031633146106605760405163118cdaa760e01b8152336004820152602401610df3565b600580546001600160a01b038381166001600160a01b0319831681179093556040519116919082907f8be0079c531659141344cd1fd0a4f28419497f9722a3daafe3b4186f6b6457e090600090a35050565b6000805b600a5481101561134357826001600160a01b0316600a828154811061131857611318611ba3565b6000918252602090912001546001600160a01b03160361133b5750600192915050565b6001016112f1565b50600092915050565b6001600160a01b0384166113765760405163e602df0560e01b815260006004820152602401610df3565b6001600160a01b0383166113a057604051634a1406b160e11b815260006004820152602401610df3565b6001600160a01b038085166000908152600160209081526040808320938716835292905220829055801561120957826001600160a01b0316846001600160a01b03167f8c5be1e5ebec7d5bd14f71427d1e84f3dd0314c0f7b2291e5b200ac8c7c3b9258460405161141391815260200190565b60405180910390a350505050565b6001600160a01b03831661144c5780600260008282546114419190611bf2565b909155506114be9050565b6001600160a01b0383166000908152602081905260409020548181101561149f5760405163391434e360e21b81526001600160a01b03851660048201526024810182905260448101839052606401610df3565b6001600160a01b03841660009081526020819052604090209082900390555b6001600160a01b0382166114da576002805482900390556114f9565b6001600160a01b03821660009081526020819052604090208054820190555b816001600160a01b0316836001600160a01b03167fddf252ad1be2c89b69c2b068fc378daa952ba7f163c4a11628f55a4df523b3ef8360405161153e91815260200190565b60405180910390a3505050565b508054600082559060005260206000209081019061117c91905b808211156115795760008155600101611565565b5090565b6000815180845260005b818110156115a357602081850181015186830182015201611587565b506000602082860101526020601f19601f83011685010191505092915050565b6020815260006115d6602083018461157d565b9392505050565b80356001600160a01b03811681146115f457600080fd5b919050565b6000806040838503121561160c57600080fd5b611615836115dd565b946020939093013593505050565b60006020828403121561163557600080fd5b5035919050565b600081518084526020840193506020830160005b8281101561169057815180516001600160a01b03168752602080820151818901526040918201519188019190915260609096019590910190600101611650565b5093949350505050565b6040815260006116ad604083018561163c565b82810360208401526116bf818561163c565b95945050505050565b6000806000606084860312156116dd57600080fd5b6116e6846115dd565b92506116f4602085016115dd565b929592945050506040919091013590565b634e487b7160e01b600052604160045260246000fd5b600082601f83011261172c57600080fd5b813567ffffffffffffffff81111561174657611746611705565b604051601f8201601f19908116603f0116810167ffffffffffffffff8111828210171561177557611775611705565b60405281815283820160200185101561178d57600080fd5b816020850160208301376000918101602001919091529392505050565b600080600080600060a086880312156117c257600080fd5b853567ffffffffffffffff8111156117d957600080fd5b6117e58882890161171b565b955050602086013567ffffffffffffffff81111561180257600080fd5b61180e8882890161171b565b945050604086013567ffffffffffffffff81111561182b57600080fd5b6118378882890161171b565b935050606086013567ffffffffffffffff81111561185457600080fd5b6118608882890161171b565b95989497509295608001359392505050565b60006020828403121561188457600080fd5b6115d6826115dd565b801515811461117c57600080fd5b600080604083850312156118ae57600080fd5b8235915060208301356118c08161188d565b809150509250929050565b8c8152610180602082015260006118e661018083018e61157d565b604083018d9052606083018c90526001600160a01b038b16608084015282810360a0840152611915818b61157d565b90508860c08401528760e08401528661010084015261193961012084018715159052565b82810361014084015261194c818661157d565b9050828103610160840152611961818561157d565b9f9e505050505050505050505050505050565b6000806040838503121561198757600080fd5b50508035926020909101359150565b600080604083850312156119a957600080fd5b6119b2836115dd565b91506119c0602084016115dd565b90509250929050565b600181811c908216806119dd57607f821691505b6020821081036119fd57634e487b7160e01b600052602260045260246000fd5b50919050565b634e487b7160e01b600052601160045260246000fd5b600060018201611a2b57611a2b611a03565b5060010190565b601f82111561118c57806000526020600020601f840160051c81016020851015611a595750805b601f840160051c820191505b81811015611a795760008155600101611a65565b5050505050565b815167ffffffffffffffff811115611a9a57611a9a611705565b611aae81611aa884546119c9565b84611a32565b6020601f821160018114611ae25760008315611aca5750848201515b600019600385901b1c1916600184901b178455611a79565b600084815260208120601f198516915b82811015611b125787850151825560209485019460019092019101611af2565b5084821015611b305786840151600019600387901b60f8161c191681555b50505050600190811b01905550565b88815261010060208201526000611b5a61010083018a61157d565b604083018990526001600160a01b03881660608401528281036080840152611b82818861157d565b60a0840196909652505060c081019290925260e09091015295945050505050565b634e487b7160e01b600052603260045260246000fd5b808202811582820484141761040c5761040c611a03565b600082611bed57634e487b7160e01b600052601260045260246000fd5b500490565b8082018082111561040c5761040c611a03565b600060208284031215611c1757600080fd5b81516115d68161188d565b600060208284031215611c3457600080fd5b505191905056fea26469706673582212205c3bdd544d9a2a87b5850f0baf292b40d0eb1aa7254795e6063fe9859e9d33b764736f6c634300081b0033",
  "linkReferences": {},
  "deployedLinkReferences": {}
}